:04000000A6EF06F071
:100D1E002C018A908A828988898A06C001F007C0D0
:100D2E0002F0DBEC06F012008A808A828998898AAA
:100D3E0006C001F007C002F0DBEC06F012001E0E3A
:100D4E00F66E0D0EF76E000EF86E0900F5CF0AF076
:100D5E000900F5CF0BF0000165EF07F0030EC26E30
:100D6E00C2B2BCEF06F0BEEF06F0B7EF06F0C4500D
:100D7E00046E036AC3500324016E000E0420026E3B
:100D8E001200070EC26EC2B2CFEF06F0D1EF06F020
:100D9E00CAEF06F0C450046E036AC3500324016EFA
:100DAE00000E0420026E1200000E056E000E046E80
:100DBE00EBEF06F0210E036E760EE82EFED7032E15
:100DCE00FCD700D0044A052A0150045C0550800A65
:100DDE00036E0250800A0358D8A0F8EF06F0FAEF1F
:100DEE0006F0E1EF06F0120001040210D8A402EFA3
:100DFE0007F004EF07F00AEF07F08A908A828998CD
:100E0E00898A27EF07F0012806E10228D8A412EFFD
:100E1E0007F014EF07F01AEF07F08A808A9289889C
:100E2E00899A27EF07F001500210D8A421EF07F09E
:100E3E0023EF07F027EF07F08A808A828988898A54
:100E4E00120056EF07F080B42FEF07F031EF07F0E6
:100E5E0037EF07F08A908A828988898A56EF07F0E1
:100E6E0080B63CEF07F03EEF07F044EF07F08A80C4
:100E7E008A828998898A28EF07F080A649EF07F0C1
:100E8E004BEF07F028EF07F080A450EF07F052EF7A
:100E9E0007F028EF07F08A808A828998898A80B4C1
:100EAE005BEF07F05DEF07F02AEF07F080B662EF19
:100EBE0007F064EF07F02AEF07F012009284928693
:100ECE009298929A9494949293909392CB68070EE0
:100EDE00CA6E0C0EBD6E0C0EBA6E640EBE6E640E35
:100EEE00BB6E0D0EC16E820EC06E000E8A6EC00EEF
:100EFE00936E28EC07F0B5EC06F02D0E015C010E9A
:100F0E000258D8B08DEF07F08FEF07F0ABEF07F078
:100F1E00C8EC06F02D0E015C010E0258D8B09AEF07
:100F2E0007F09CEF07F0ABEF07F08A98000E026E09
:100F3E00010E016EFBEC06F0000E026E0A0E016E43
:100F4E00DBEC06F080EF07F0000E026E000E016E75
:100F5E00FBEC06F0000E096E000E086E8A88000E7D
:100F6E00026E0A0E016EDBEC06F08A98000E026E1F
:100F7E000A0E016EDBEC06F0084A092A09BED1EF13
:100F8E0007F0095009E1030E085CD8A0D1EF07F075
:100F9E00D3EF07F0B5EF07F0000E026E0A0E016EEA
:100FAE00DBEC06F0FF0E026E0168FBEC06F0000EA5
:100FBE00026EC80E016EDBEC06F0000E076E640EBC
:100FCE00066E90EC06F0000E026E010E016EFBEC4A
:100FDE0006F0000E026EC80E016EDBEC06F0000E7F
:100FEE00076E500E066E9BEC06F080EF07F000EFDA
:020FFE0000F001
:020000040030CA
:04000000FF021E1EBF
:0200060081FF78
:00000001FF
