:04000000B4EF03F066
:10020000000011C001F012C002F0000E046E050ED5
:10021000036E7BEC03F001C007F002C008F0000E93
:100220000A6E020E096E4CEC02F007C019F008C00D
:100230001AF0000E1C6E000E1B6E0F041010D8A4D6
:1002400024EF01F026EF01F070EF01F08A808A823E
:100250008998898A82B02FEF01F033EF01F0136A99
:10026000132A34EF01F0136A1350156E166A5FEF0C
:1002700001F082B03EEF01F041EF01F0010E42EFDC
:1002800001F0000E136E146A1550131809E1165090
:100290001418D8B44EEF01F050EF01F052EF01F016
:1002A0001B4A1C2A82B057EF01F05BEF01F0136A82
:1002B000132A5CEF01F0136A1350156E166A195079
:1002C0001B5C1C50800A136E1A50800A1358D8A069
:1002D0006CEF01F06EEF01F039EF01F0C2EF01F0C9
:1002E0000F2806E11028D8A478EF01F07AEF01F08A
:1002F000C2EF01F08A908A828988898A82BA83EF64
:1003000001F087EF01F0136A132A88EF01F0136AF6
:100310001350176E186AB3EF01F082BA92EF01F032
:1003200095EF01F0010E96EF01F0000E136E146AC6
:100330001750131809E118501418D8B4A2EF01F09F
:10034000A4EF01F0A6EF01F01B4A1C2A82BAABEF22
:1003500001F0AFEF01F0136A132AB0EF01F0136A56
:100360001350176E186A19501B5C1C50800A136ECC
:100370001A50800A1358D8A0C0EF01F0C2EF01F064
:100380008DEF01F08A808A828988898A1200F90EAD
:10039000946E0F0E926EC00E936ECB68070ECA6EEF
:1003A0000C0EBD6E0C0EBA6E7D0EBE6E7D0EBB6E5B
:1003B0000D0EC16E820EC06E000E8A6E010E156E9D
:1003C0002C0E146EAEEC02F0EBEC02F0A1EC03F09C
:1003D0002C0E015C010E0258D8B0F1EF01F0F3EFE2
:1003E00001F000EF02F08EEC03F02C0E015C010E28
:1003F0000258D8A0FEEF01F000EF02F03EEF02F04D
:10040000000E156E000E146E000E176E000E166EA6
:1004100028EC03F0000E156E640E146EAEEC02F0C4
:10042000000E106E0A0E0F6E5BEC03F0FF0E156EE1
:100430001468000E176E640E166E28EC03F0FF0EA3
:10044000106E0F68000E126E3C0E116E01EC01F082
:10045000000E156E010E146E000E176E640E166EF1
:1004600028EC03F0000E106E010E0F6E000E126EDF
:100470003C0E116E01EC01F0E4EF01F0000E156E80
:10048000010E146E000E176E0A0E166E28EC03F0A5
:10049000E4EF01F000EF00F0000E0C6E0ABE55EF25
:1004A00002F053EF02F05BEF02F0096C0A1ED8B0C5
:1004B0000A2A010E0C6E08BE62EF02F060EF02F035
:1004C00068EF02F0076C081ED8B0082A010E0C1A5B
:1004D000000E0E6E000E0D6E09500A10D8B473EFA8
:1004E00002F075EF02F09DEF02F0010E0B6E7DEF52
:1004F00002F0D89009360A360B2A0AAE82EF02F0D3
:1005000084EF02F079EF02F0D8900D360E360950E4
:10051000075C0A500858D8A090EF02F092EF02F062
:1005200097EF02F00950075E0A50085A0D80D890E4
:100530000A3209320B2E84EF02F00C50D8B4A3EF2C
:1005400002F0A5EF02F0A9EF02F00D6C0E1ED8B07C
:100550000E2A0DC007F00EC008F01200000E176E34
:10056000000E166E8A848A868A888A8A14C007F0EA
:1005700015C008F0000E0A6E060E096E4CEC02F073
:1005800007C00FF008C010F05BEC03F08A948A9665
:100590008A988A9A14C007F015C008F0000E0A6EF7
:1005A000060E096E4CEC02F007C00FF008C010F008
:1005B0005BEC03F0164A172A17BEE8EF02F017505B
:1005C00009E1030E165CD8A0E8EF02F0EAEF02F0B2
:1005D000B2EF02F0120019EF03F080B4F2EF02F074
:1005E000F4EF02F0FAEF02F08A908A828988898A11
:1005F00019EF03F080B6FFEF02F001EF03F007EF11
:1006000003F08A808A828998898AEBEF02F080A6BB
:100610000CEF03F00EEF03F0EBEF02F080A413EF0A
:1006200003F015EF03F0EBEF02F08A808A828998DD
:10063000898A80B41EEF03F020EF03F0EDEF02F0A3
:1006400080B625EF03F027EF03F0EDEF02F0120084
:1006500014041510D8A42FEF03F031EF03F037EF97
:1006600003F08A908A828998898A54EF03F01428CB
:1006700006E11528D8A43FEF03F041EF03F047EF60
:1006800003F08A808A928988899A54EF03F0145083
:100690001510D8A44EEF03F050EF03F054EF03F021
:1006A0008A808A828988898A16C00FF017C010F064
:1006B0005BEC03F01200000E136E000E126E6BEF77
:1006C00003F0210E116E760EE82EFED7112EFCD708
:1006D00000D0124A132A0F50125C1350800A116E78
:1006E0001050800A1158D8A078EF03F07AEF03F089
:1006F00061EF03F0120001500302F3CF05F0F4CFD5
:1007000006F001500402F350062602500302F35093
:10071000062605C001F006C002F01200070EC26EE8
:10072000C2B295EF03F097EF03F090EF03F0C450DF
:10073000046E036AC3500324016E000E0420026E8F
:100740001200030EC26EC2B2A8EF03F0AAEF03F0CC
:10075000A3EF03F0C450046E036AC3500324016E78
:10076000000E0420026E1200860EF66E070EF76E63
:10077000000EF86E0900F5CF1DF00900F5CF1EF050
:080780000001C7EF01F02C019C
:020000040030CA
:04000000FF021E1EBF
:0200060081FF78
:00000001FF
